:100000000C9434000C9451000C9451000C94510049
:100010000C9451000C9451000C9451000C9451001C
:100020000C9451000C9451000C9451000C9451000C
:100030000C9451000C9451000C9451000C945100FC
:100040000C94FB070C9451000C94C8080C945100BC
:100050000C9451000C9451000C9451000C945100DC
:100060000C9451000C94510011241FBECFEFD8E026
:10007000DEBFCDBF13E0A0E0B1E0E0E5F2E102C0F9
:1000800005900D92AC30B107D9F723E0ACE0B3E0B6
:1000900001C01D92A23AB207E1F70E9409090C942F
:1000A00026090C9400002091880030918900821765
:1000B00093076CF03093890020938800EFE3FCE90C
:1000C0003197F1F700C000002F5F3F4FF0CF089548
:1000D000FC01319680E090E020E030E04AE06217D9
:1000E00073077CF05191C097DC01A50FB11D57FD3E
:1000F000BA954A9FC0014B9F900D11242F5F3F4F2F
:10010000EECF0895CF93DF9300D000D000D0CDB7CD
:10011000DEB7ECE0F3E04083518362837383848332
:100120009583CF0126960FB6F894DEBF0FBECDBFE4
:10013000DF91CF910895CF93DF9300D000D000D00E
:10014000CDB7DEB7FC013181428153816481758175
:10015000208180E090E026960FB6F894DEBF0FBEB7
:10016000CDBFDF91CF910895CF93DF9300D000D022
:1001700000D0CDB7DEB7FC013281330F3056832F6C
:10018000880F880F380F83818053380F4481440FC4
:100190004056842F880F880F480F85818053480F61
:1001A0005681550F5056852F880F880F580F87811D
:1001B0008053580F6085660F6056862F880F880F12
:1001C000680F81858053680F7285770F7056872F6F
:1001D000880F880F780F83858053780F2081220F36
:1001E0002056822F880F880F280F81818053280F77
:1001F00080E090E026960FB6F894DEBF0FBECDBF2C
:10020000DF91CF910895259A90E285B1892785B92C
:100210002FEF39E688E1215030408040E1F700C0FF
:100220000000F3CF88E091E00E9487088BE091E026
:100230000E94870884E191E00E9487088EE291E0A5
:100240000E94870887E391E00E94870885E491E097
:100250000E94870883E591E00E9487088CE591E081
:100260000C9487088A3F9105A1F4809188009091B1
:1002700089008A3F910564F09093890080938800FB
:10028000EFE3FCE93197F1F700C000000197F1CFEF
:100290000895843A914021F484EA91E00C9453004B
:1002A0000895219A109285001092840083EC99E0C1
:1002B000909387008093860082E8809380008BE192
:1002C0008093810084EA91E0909389008093880074
:1002D0000895CF93DF93CDB7DEB728970FB6F89484
:1002E000DEBF0FBECDBF8091000190910101A091B2
:1002F0000201B09103018D839E83AF83B887809103
:10030000040190910501A0910601B0910701898334
:100310009A83AB83BC8324E030E0AE014B5F5F4F38
:1003200060E070E080E50E940C042FEF81EE94E025
:10033000215080409040E1F700C0000024E030E010
:10034000AE014F5F5F4F60E070E080E50E946004A7
:10035000FE013596DE011196CE01099631912D915F
:10036000321739F08BE691E00E94630880E090E05C
:1003700005C0E817F90791F781E090E028960FB6DD
:10038000F894DEBF0FBECDBFDF91CF910895CF921D
:10039000DF92EF92FF920F931F93CF93DF93CDB72E
:1003A000DEB768970FB6F894DEBF0FBECDBF809161
:1003B0002203803501F1843509F429C1843409F020
:1003C0004EC164E070E082E293E00E94680026E0A3
:1003D000289F6001299FD00C112426E030E0AE0157
:1003E0004F5F5F4FB60180E50E946004FE013196C9
:1003F000CE0107967FC064E070E082E293E00E9445
:10040000680026E0289F6001299FD00C112426E077
:1004100030E0AE014F5F5F4FB60180E50E9460049F
:10042000FE013196CE01079621912F3FE9F08AE037
:100430000E944C088DE00E944C0887E891E00E94E1
:100440008708809123030E944C08809124030E9416
:100450004C08809125030E944C08809126030E943D
:100460004C0880E991E065C0E817F907E9F60E94B9
:10047000C8062B8B3C8B4D8B5E8B6F8B788F2093BC
:100480000C0330930D0340930E0350930F036093BE
:100490001003709311038AE00E944C088DE00E94C3
:1004A0004C0887E891E00E948708809123030E940E
:1004B0004C08809124030E944C08809125030E94DF
:1004C0004C08809126030E944C0883EA91E00E9428
:1004D00063084B895C896D897E898F89988D0E941C
:1004E000530726E030E04CE053E0B60180E50E947F
:1004F0000C047BC021912F3FF9F48AE00E944C0844
:100500008DE00E944C0887E891E00E948708809166
:1005100023030E944C08809124030E944C08809180
:1005200025030E944C08809126030E944C088CEB06
:1005300091E00E94630893C0E817F907D9F60E947A
:10054000C8062B8B3C8B4D8B5E8B6F8B788FCE01CF
:1005500001960E949B00B22FA32FF42FE52FCB0111
:10056000BD87AE87FF87E88B698B9A8BEB88FC8809
:100570000D891E892F89388D4B2F5A2F6F2F7E2F73
:100580000E940D072F83388749875A876B877C879E
:100590008AE00E944C088DE00E944C0887E891E0B8
:1005A0000E948708809123030E944C0880912403B5
:1005B0000E944C08809125030E944C0880912603DC
:1005C0000E944C0881ED91E00E9463084F8158859C
:1005D00069857A858B859C850E94530726E030E0EB
:1005E0004FEFB60180E50E9432058AEF90E00E944D
:1005F00032012FEF87EA91E6215080409040E1F7E9
:1006000000C0000084EA91E00E94530028C08AE004
:100610000E944C088DE00E944C0887EE91E00E94F9
:10062000870883E293E00E94B400F42FE52FCB010A
:10063000A9016F2F7E2F0E94530783E293E00E944F
:10064000B400F42FE52FCB0129833A83FB83EC839D
:100650006D839E83A9016F2F7E2F0E9437066896B7
:100660000FB6F894DEBF0FBECDBFDF91CF911F91C3
:100670000F91FF90EF90DF90CF9008950E94370880
:100680000E9454030E9480060E9412010E945101A0
:100690000E946901019731F481E092E00E946308B1
:1006A000789408950E9403018CE08093B800089527
:1006B00084E98093BC000895CF93DF93EC0189E136
:1006C00092E00E946308C330D10571F02CF42297A8
:1006D00091F481E392E00DC0C430D10541F025973B
:1006E00051F484E792E005C086E492E002C08BE515
:1006F00092E00E94630884E98093BC00DF91CF916F
:10070000089584E690E00E94D7078091BC0087FDA1
:1007100004C00E94F6070397C1F7089594EA9093E6
:10072000BC009091BC0097FFFCCF9091B900987FDE
:10073000983061F09091B900987F903139F082E063
:1007400090E00E945C0382E090E008958093BB00FB
:1007500084E88093BC008091BC0087FFFCCF80912F
:10076000B900887F883149F0803439F083E090E027
:100770000E945C0383E090E0089581E090E008959A
:100780008093BB0084E88093BC008091BC0087FF0D
:10079000FCCF8091B900887F883239F084E090E006
:1007A0000E945C0384E090E0089581E090E0089569
:1007B000FC0184EC8093BC008091BC0087FFFCCFDF
:1007C0009091B900987F903539F085E090E00E94D3
:1007D0005C0385E090E008958091BB00808381E018
:1007E00090E00895FC0184E88093BC008091BC00F7
:1007F00087FFFCCF9091B900987F983539F085E05C
:1008000090E00E945C0385E090E008958091BB0039
:10081000808381E090E00895CF92DF92EF92FF9283
:100820000F931F93CF93DF9300D000D0CDB7DEB7E7
:100830007A016901272F33273C832B837A836983CD
:10084000880F0E948E03019739F083E090E00E94A8
:100850005C0383E090E027C08B819C810E94C003F1
:10086000019739F084E090E00E945C0384E090E01E
:100870001AC089819A810E94C003019799F7870164
:10088000C8018E199F098C159D0544F4F8018191CA
:100890008F010E94C003019799F3E4CF84E980930C
:1008A000BC0081E090E00F900F900F900F90DF91CF
:1008B000CF911F910F91FF90EF90DF90CF9008950F
:1008C000CF92DF92EF92FF920F931F93CF93DF931C
:1008D00000D000D0CDB7DEB7F82E6A018901872F8E
:1008E00099279C838B837A8369838F2D880F0E943D
:1008F0008E03019739F083E090E00E945C0383E06F
:1009000090E03CC08B819C810E94C003019739F02C
:1009100084E090E00E945C0384E090E02FC0898135
:100920009A810E94C003019799F78F2D880F8160EB
:100930000E948E030197F9F6E12CF12C0150110968
:10094000C601E016F1068CF48E0D9F1D0E94D8039F
:10095000019739F085E090E00E945C0385E090E02B
:100960000DC08FEFE81AF80AEBCF800F911F0E949D
:10097000F20384E98093BC0081E090E00F900F9037
:100980000F900F90DF91CF911F910F91FF90EF90FB
:10099000DF90CF9008951F93CF93DF93162FEA0136
:1009A000880F0E948E03019739F083E090E00E9447
:1009B0005C0383E090E016C0812F0E94C003019782
:1009C00039F084E090E00E945C0384E090E00AC08B
:1009D00088810E94C0030197A1F784E98093BC003D
:1009E00081E090E0DF91CF911F9108950F931F93C5
:1009F000CF93DF93C82FD62F8A01880F0E948E03D2
:100A0000019739F083E090E00E945C0383E090E07E
:100A100024C08D2F0E94C003019739F084E090E03C
:100A20000E945C0384E090E018C08C2F880F8160E6
:100A30000E948E03019731F7C8010E94F2030197CB
:100A400039F085E090E00E945C0385E090E005C00D
:100A500084E98093BC0081E090E0DF91CF911F9109
:100A60000F910895DF92EF92FF920F931F93CF9310
:100A7000DF9300D000D0CDB7DEB7D42E7901272F79
:100A800033273C832B837A836983880F0E948E03EC
:100A9000019739F083E090E00E945C0383E090E0EE
:100AA00025C08B819C810E94C003019739F084E0AE
:100AB00090E00E945C0384E090E018C089819A81F4
:100AC0000E94C003019799F700E010E00E151F0582
:100AD00044F48D2D0E94C003019749F70F5F1F4F0B
:100AE000F5CF84E98093BC0081E090E00F900F90F7
:100AF0000F900F90DF91CF911F910F91FF90EF908A
:100B0000DF900895282F082E000C330B207F332709
:100B100094E0359527959A95E1F78F709AE0299F93
:100B2000800D112408956AE00E940C09292F30E1FC
:100B30008302C0011124822B0895E8E1F3E06AE00A
:100B40000E940C09805D8083905D91831282CF01A9
:100B50000895FC0190819053818180532AE0929FF7
:100B6000800D11240895CF93DF931F92CDB7DEB788
:100B70001982AE014F5F5F4F60E088E60E94F60485
:100B8000019721F08BE892E00E94630889818062DE
:100B90008983AE014F5F5F4F60E088E60E94CB041F
:100BA000019721F08EE992E00E9463080F90DF9197
:100BB000CF910895CF93DF931F92CDB7DEB71982FF
:100BC000AE014F5F5F4F60E088E60E94F604019738
:100BD00021F08BE892E00E94630889818F7D8983F0
:100BE000AE014F5F5F4F60E088E60E94CB04019743
:100BF00021F08EE992E00E9463080F90DF91CF917F
:100C00000895CF93DF931F92CDB7DEB71982AE015F
:100C10004F5F5F4F682F88E60E94F604019721F02E
:100C20008BE892E00E94630889810F90DF91CF9159
:100C30000C9482051F93CF93DF931F92CDB7DEB73D
:100C4000182F862F0E9493058983AE014F5F5F4F57
:100C5000612F88E60E94CB04019721F08BE892E097
:100C60000E9463080F90DF91CF911F910895CF9359
:100C7000DF9300D000D000D0CDB7DEB749835A83D0
:100C80006B837C838D839E830E94B30589810E9440
:100C90009305682F83E090E00E941A068A810E94E3
:100CA0009305682F84E090E00E941A068B810E94D1
:100CB0009305682F86E090E00E941A068C810E94BE
:100CC0009305682F86E090E00E941A068D810E94AD
:100CD0009305682F88E090E00E941A068E810E949A
:100CE0009305682F89E090E00E941A0626960FB6B9
:100CF000F894DEBF0FBECDBFDF91CF910C94DA0523
:100D0000CF93DF93CDB7DEB729970FB6F894DEBF48
:100D10000FBECDBF1986188681E08F83FE01319604
:100D200086E0DF011D928A95E9F7AE01475F5F4FCC
:100D300060E088E60E94CB04019729F082EB92E004
:100D40000E94630812C0AE01485F5F4F61E088E611
:100D50000E94CB04019791F7AE01495F5F4F62E0BB
:100D600088E60E94CB04019749F749815A816B813B
:100D70007C818D819E810E9437060E94DA0529962A
:100D80000FB6F894DEBF0FBECDBFDF91CF910895AF
:100D9000DF92EF92FF920F931F93CF93DF9300D0D8
:100DA00000D000D0CDB7DEB783E00E9401060E94DC
:100DB0008205D82E84E00E9401060E948205E82E5A
:100DC00086E00E9401060E948205F82E86E00E94BD
:100DD00001060E948205082F88E00E9401060E94F9
:100DE0008205182F89E00E9401060E9482052D2DA0
:100DF0003E2D4F2D502F612F782F80E090E02696CA
:100E00000FB6F894DEBF0FBECDBFDF91CF911F911B
:100E10000F91FF90EF90DF900895EF92FF920F9364
:100E20001F93CF93DF93CDB7DEB762970FB6F894D9
:100E3000DEBF0FBECDBFFA01AB01732F791B2817A0
:100E40000CF4245F622F681B15171CF0151B512F23
:100E500003C0150F5EE1511B04171CF0041B402F4B
:100E600003C0040F48E1401BFF161CF03F2D3F1B41
:100E700003C0FF0E3CE33F19EE161CF02E2D2E1B77
:100E800003C0EE0E2CE32E1980E090E062960FB6C0
:100E9000F894DEBF0FBECDBFDF91CF911F910F91B0
:100EA000FF90EF900895CF93DF9300D000D000D053
:100EB000CDB7DEB749835A836B837C838D839E8352
:100EC0008FEC92E00E9487088E810E949D050E940F
:100ED00087088CE70E944C0884ED92E00E94870806
:100EE0008D810E949D050E9487088CE70E944C0816
:100EF0008BED92E00E9487088C810E949D050E94E4
:100F000087088CE70E944C0880EE92E00E948708D8
:100F10008B810E949D050E9487088CE70E944C08E7
:100F200086EE92E00E9487088A810E949D050E94B9
:100F300087088CE70E944C088FEE92E00E94870899
:100F400089810E949D050E9487088AE00E944C08C2
:100F50008DE026960FB6F894DEBF0FBECDBFDF91B1
:100F6000CF910C944C089C019FB7F8943093850066
:100F7000209384009FBF0895F8948FE298EF0E9419
:100F8000B3071092200310921F031092800082E09A
:100F900080938100EFE6F0E080818160808381E0D2
:100FA00090E090931C0380931B0378940895CF9353
:100FB000DF93EC010E94BC071092200310921F03E4
:100FC000D0931E03C0931D0382E090E090931C0316
:100FD00080931B03DF91CF91089510926F0081E001
:100FE00090E090931C0380931B03089580911B0352
:100FF00090911C0308951F920F920FB60F92112427
:101000002F933F934F935F936F937F938F939F9310
:10101000AF93BF93EF93FF9380911F0390912003B1
:1010200020911D0330911E03821793074CF083E03B
:1010300090E090931C0380931B030E94ED0705C072
:1010400001969093200380931F03B098FF91EF9136
:10105000BF91AF919F918F917F916F915F914F91D0
:101060003F912F910F900FBE0F901F9018951092E7
:10107000C5008FEC8093C400E0ECF0E080818260DA
:101080008083E1ECF0E0808188698083E2ECF0E02D
:1010900080818660808308959091C00095FFFCCF89
:1010A0008093C600089584E690E00E94D70780915F
:1010B000C00087FF03C08091C60008950E94F60714
:1010C0000397A9F7F8CFCF93DF930097D9F0EC01FE
:1010D0008991882329F0833219F00E944C08F8CFB7
:1010E0008AE00E944C088DE00E944C082FEF81EEB0
:1010F00094E0215080409040E1F700C0000081E082
:1011000090E002C082E090E0DF91CF910895CF930C
:10111000DF930097A9F0EC018991882329F08332AD
:1011200019F00E944C08F8CF2FEF81EE94E0215087
:1011300080409040E1F700C0000081E090E002C0F4
:1011400082E090E0DF91CF9108950F931F93CF93AA
:10115000DF938C01EC010E945308811103C0C0177A
:10116000D10731F089938111F6CF81E090E002C080
:1011700082E090E0DF91CF911F910F910895E2E21C
:10118000F3E083E0E23AF80711F01192FACF089504
:101190001F920F920FB60F9211242F933F934F93EC
:1011A0005F936F937F938F939F93AF93BF93EF93CF
:1011B000FF938091C600843219F41092210318C065
:1011C000E091210391E09E0F90932103F0E0EE5D0A
:1011D000FC4F8083833261F489EF92E00E9487089C
:1011E00082E293E00E9487080E94C7010E94BF0824
:1011F000FF91EF91BF91AF919F918F917F916F91EF
:101200005F914F913F912F910F900FBE0F901F90C4
:1012100018950E943E03FFCF87FB082E062687FD08
:10122000819567FD61950E941A090EF4919507FC5E
:1012300081950895991B79E004C0991F961708F0CD
:10124000961B881F7A95C9F780950895F894FFCF6B
:10125000746573747878787841540041542B524FF8
:101260004C45300041542B4C4144445230303A31CB
:10127000353A38373A31323A45303A363800415407
:101280002B54595045300041542B55554944307822
:10129000464645300041542B43484152307846463B
:1012A00045310041542B4E4F5449310041542B4E8F
:1012B000414D45626172696572610045726F61728C
:1012C0006520696E697469616C697A617265206D07
:1012D000656D6F7269650055736572756C205B0092
:1012E0005D20657374652064656A6120706F6E743B
:1012F0006174005D206573746520706F6E74617435
:10130000206C612064617461203A20005D20657367
:1013100074652064656A61206465706F6E746174C1
:10132000005D2061726520756E20706F6E74616A59
:10133000206465203A200054696D70756C2061202E
:10134000666F7374207365746174206C61203A2039
:1013500000496E697469616C697A617265206669B9
:101360006E616C697A6174610045726F61726520AB
:101370007472616E736D6973696520696963203A7F
:10138000004949433A20537461727420636F6E645C
:101390006974696F6E004949433A436F6E666972BA
:1013A0006D61726520736C617665004949433A202E
:1013B0007363726965647265206461746520736C1F
:1013C000617665004949433A206369746972652012
:1013D0006461746520736C617665005254433A20F1
:1013E00045726F6172652063697469726500525459
:1013F000433A2045726F617265207363726965724A
:1014000065005254433A2045726F61726520696EDF
:10141000697469616C697A61726520525443004154
:101420006E203A004C756E61203A005A69203A00ED
:101430004F7261203A004D696E757465203A005311
:101440006563756E6465203A00436F6D616E64611B
:0C145000207072696D697461203A200000
:00000001FF
